{
  "_format": "hh-sol-artifact-1",
  "contractName": "MockRWAToken",
  "sourceName": "contracts/MockRWAToken.sol",
  "abi": [
    {
      "inputs": [
        {
          "internalType": "string",
          "name": "name",
          "type": "string"
        },
        {
          "internalType": "string",
          "name": "symbol",
          "type": "string"
        }
      ],
      "stateMutability": "nonpayable",
      "type": "constructor"
    },
    {
      "inputs": [
        {
          "internalType": "address",
          "name": "spender",
          "type": "address"
        },
        {
          "internalType": "uint256",
          "name": "allowance",
          "type": "uint256"
        },
        {
          "internalType": "uint256",
          "name": "needed",
          "type": "uint256"
        }
      ],
      "name": "ERC20InsufficientAllowance",
      "type": "error"
    },
    {
      "inputs": [
        {
          "internalType": "address",
          "name": "sender",
          "type": "address"
        },
        {
          "internalType": "uint256",
          "name": "balance",
          "type": "uint256"
        },
        {
          "internalType": "uint256",
          "name": "needed",
          "type": "uint256"
        }
      ],
      "name": "ERC20InsufficientBalance",
      "type": "error"
    },
    {
      "inputs": [
        {
          "internalType": "address",
          "name": "approver",
          "type": "address"
        }
      ],
      "name": "ERC20InvalidApprover",
      "type": "error"
    },
    {
      "inputs": [
        {
          "internalType": "address",
          "name": "receiver",
          "type": "address"
        }
      ],
      "name": "ERC20InvalidReceiver",
      "type": "error"
    },
    {
      "inputs": [
        {
          "internalType": "address",
          "name": "sender",
          "type": "address"
        }
      ],
      "name": "ERC20InvalidSender",
      "type": "error"
    },
    {
      "inputs": [
        {
          "internalType": "address",
          "name": "spender",
          "type": "address"
        }
      ],
      "name": "ERC20InvalidSpender",
      "type": "error"
    },
    {
      "anonymous": false,
      "inputs": [
        {
          "indexed": true,
          "internalType": "address",
          "name": "owner",
          "type": "address"
        },
        {
          "indexed": true,
          "internalType": "address",
          "name": "spender",
          "type": "address"
        },
        {
          "indexed": false,
          "internalType": "uint256",
          "name": "value",
          "type": "uint256"
        }
      ],
      "name": "Approval",
      "type": "event"
    },
    {
      "anonymous": false,
      "inputs": [
        {
          "indexed": true,
          "internalType": "address",
          "name": "from",
          "type": "address"
        },
        {
          "indexed": true,
          "internalType": "address",
          "name": "to",
          "type": "address"
        },
        {
          "indexed": false,
          "internalType": "uint256",
          "name": "value",
          "type": "uint256"
        }
      ],
      "name": "Transfer",
      "type": "event"
    },
    {
      "inputs": [],
      "name": "admin",
      "outputs": [
        {
          "internalType": "address",
          "name": "",
          "type": "address"
        }
      ],
      "stateMutability": "view",
      "type": "function"
    },
    {
      "inputs": [
        {
          "internalType": "address",
          "name": "owner",
          "type": "address"
        },
        {
          "internalType": "address",
          "name": "spender",
          "type": "address"
        }
      ],
      "name": "allowance",
      "outputs": [
        {
          "internalType": "uint256",
          "name": "",
          "type": "uint256"
        }
      ],
      "stateMutability": "view",
      "type": "function"
    },
    {
      "inputs": [
        {
          "internalType": "address",
          "name": "spender",
          "type": "address"
        },
        {
          "internalType": "uint256",
          "name": "value",
          "type": "uint256"
        }
      ],
      "name": "approve",
      "outputs": [
        {
          "internalType": "bool",
          "name": "",
          "type": "bool"
        }
      ],
      "stateMutability": "nonpayable",
      "type": "function"
    },
    {
      "inputs": [
        {
          "internalType": "address",
          "name": "account",
          "type": "address"
        }
      ],
      "name": "balanceOf",
      "outputs": [
        {
          "internalType": "uint256",
          "name": "",
          "type": "uint256"
        }
      ],
      "stateMutability": "view",
      "type": "function"
    },
    {
      "inputs": [],
      "name": "decimals",
      "outputs": [
        {
          "internalType": "uint8",
          "name": "",
          "type": "uint8"
        }
      ],
      "stateMutability": "view",
      "type": "function"
    },
    {
      "inputs": [
        {
          "internalType": "address",
          "name": "to",
          "type": "address"
        },
        {
          "internalType": "uint256",
          "name": "amount",
          "type": "uint256"
        }
      ],
      "name": "mint",
      "outputs": [],
      "stateMutability": "nonpayable",
      "type": "function"
    },
    {
      "inputs": [],
      "name": "name",
      "outputs": [
        {
          "internalType": "string",
          "name": "",
          "type": "string"
        }
      ],
      "stateMutability": "view",
      "type": "function"
    },
    {
      "inputs": [],
      "name": "symbol",
      "outputs": [
        {
          "internalType": "string",
          "name": "",
          "type": "string"
        }
      ],
      "stateMutability": "view",
      "type": "function"
    },
    {
      "inputs": [],
      "name": "totalSupply",
      "outputs": [
        {
          "internalType": "uint256",
          "name": "",
          "type": "uint256"
        }
      ],
      "stateMutability": "view",
      "type": "function"
    },
    {
      "inputs": [
        {
          "internalType": "address",
          "name": "to",
          "type": "address"
        },
        {
          "internalType": "uint256",
          "name": "value",
          "type": "uint256"
        }
      ],
      "name": "transfer",
      "outputs": [
        {
          "internalType": "bool",
          "name": "",
          "type": "bool"
        }
      ],
      "stateMutability": "nonpayable",
      "type": "function"
    },
    {
      "inputs": [
        {
          "internalType": "address",
          "name": "from",
          "type": "address"
        },
        {
          "internalType": "address",
          "name": "to",
          "type": "address"
        },
        {
          "internalType": "uint256",
          "name": "value",
          "type": "uint256"
        }
      ],
      "name": "transferFrom",
      "outputs": [
        {
          "internalType": "bool",
          "name": "",
          "type": "bool"
        }
      ],
      "stateMutability": "nonpayable",
      "type": "function"
    }
  ],
  "bytecode": "0x608060405234801561001057600080fd5b50604051610dbb380380610dbb83398101604081905261002f916102b2565b8181600361003d83826103a4565b50600461004a82826103a4565b5050600580546001600160a01b03191633908117909155610089915061006e601290565b61007990600a610561565b610084906005610577565b610090565b50506105a1565b6001600160a01b0382166100bf5760405163ec442f0560e01b8152600060048201526024015b60405180910390fd5b6100cb600083836100cf565b5050565b6001600160a01b0383166100fa5780600260008282546100ef919061058e565b9091555061016c9050565b6001600160a01b0383166000908152602081905260409020548181101561014d5760405163391434e360e21b81526001600160a01b038516600482015260248101829052604481018390526064016100b6565b6001600160a01b03841660009081526020819052604090209082900390555b6001600160a01b038216610188576002805482900390556101a7565b6001600160a01b03821660009081526020819052604090208054820190555b816001600160a01b0316836001600160a01b03167fddf252ad1be2c89b69c2b068fc378daa952ba7f163c4a11628f55a4df523b3ef836040516101ec91815260200190565b60405180910390a3505050565b634e487b7160e01b600052604160045260246000fd5b600082601f83011261022057600080fd5b81516001600160401b03811115610239576102396101f9565b604051601f8201601f19908116603f011681016001600160401b0381118282101715610267576102676101f9565b60405281815283820160200185101561027f57600080fd5b60005b8281101561029e57602081860181015183830182015201610282565b506000918101602001919091529392505050565b600080604083850312156102c557600080fd5b82516001600160401b038111156102db57600080fd5b6102e78582860161020f565b602085015190935090506001600160401b0381111561030557600080fd5b6103118582860161020f565b9150509250929050565b600181811c9082168061032f57607f821691505b60208210810361034f57634e487b7160e01b600052602260045260246000fd5b50919050565b601f82111561039f57806000526020600020601f840160051c8101602085101561037c5750805b601f840160051c820191505b8181101561039c5760008155600101610388565b50505b505050565b81516001600160401b038111156103bd576103bd6101f9565b6103d1816103cb845461031b565b84610355565b6020601f82116001811461040557600083156103ed5750848201515b600019600385901b1c1916600184901b17845561039c565b600084815260208120601f198516915b828110156104355787850151825560209485019460019092019101610415565b50848210156104535786840151600019600387901b60f8161c191681555b50505050600190811b01905550565b634e487b7160e01b600052601160045260246000fd5b6001815b60018411156104b35780850481111561049757610497610462565b60018416156104a557908102905b60019390931c92800261047c565b935093915050565b6000826104ca5750600161055b565b816104d75750600061055b565b81600181146104ed57600281146104f757610513565b600191505061055b565b60ff84111561050857610508610462565b50506001821b61055b565b5060208310610133831016604e8410600b8410161715610536575081810a61055b565b6105436000198484610478565b806000190482111561055757610557610462565b0290505b92915050565b600061057060ff8416836104bb565b9392505050565b808202811582820484141761055b5761055b610462565b8082018082111561055b5761055b610462565b61080b806105b06000396000f3fe608060405234801561001057600080fd5b50600436106100a95760003560e01c806340c10f191161007157806340c10f191461012357806370a082311461013857806395d89b4114610161578063a9059cbb14610169578063dd62ed3e1461017c578063f851a440146101b557600080fd5b806306fdde03146100ae578063095ea7b3146100cc57806318160ddd146100ef57806323b872dd14610101578063313ce56714610114575b600080fd5b6100b66101e0565b6040516100c39190610654565b60405180910390f35b6100df6100da3660046106be565b610272565b60405190151581526020016100c3565b6002545b6040519081526020016100c3565b6100df61010f3660046106e8565b61028c565b604051601281526020016100c3565b6101366101313660046106be565b6102b0565b005b6100f3610146366004610725565b6001600160a01b031660009081526020819052604090205490565b6100b6610313565b6100df6101773660046106be565b610322565b6100f361018a366004610747565b6001600160a01b03918216600090815260016020908152604080832093909416825291909152205490565b6005546101c8906001600160a01b031681565b6040516001600160a01b0390911681526020016100c3565b6060600380546101ef9061077a565b80601f016020809104026020016040519081016040528092919081815260200182805461021b9061077a565b80156102685780601f1061023d57610100808354040283529160200191610268565b820191906000526020600020905b81548152906001019060200180831161024b57829003601f168201915b5050505050905090565b600033610280818585610330565b60019150505b92915050565b60003361029a858285610342565b6102a58585856103c0565b506001949350505050565b6005546001600160a01b031633146103055760405162461bcd60e51b815260206004820152601360248201527213db9b1e4818591b5a5b8818d85b881b5a5b9d606a1b60448201526064015b60405180910390fd5b61030f828261041f565b5050565b6060600480546101ef9061077a565b6000336102808185856103c0565b61033d8383836001610455565b505050565b6001600160a01b0383811660009081526001602090815260408083209386168352929052205460001981146103ba57818110156103ab57604051637dc7a0d960e11b81526001600160a01b038416600482015260248101829052604481018390526064016102fc565b6103ba84848484036000610455565b50505050565b6001600160a01b0383166103ea57604051634b637e8f60e11b8152600060048201526024016102fc565b6001600160a01b0382166104145760405163ec442f0560e01b8152600060048201526024016102fc565b61033d83838361052a565b6001600160a01b0382166104495760405163ec442f0560e01b8152600060048201526024016102fc565b61030f6000838361052a565b6001600160a01b03841661047f5760405163e602df0560e01b8152600060048201526024016102fc565b6001600160a01b0383166104a957604051634a1406b160e11b8152600060048201526024016102fc565b6001600160a01b03808516600090815260016020908152604080832093871683529290522082905580156103ba57826001600160a01b0316846001600160a01b03167f8c5be1e5ebec7d5bd14f71427d1e84f3dd0314c0f7b2291e5b200ac8c7c3b9258460405161051c91815260200190565b60405180910390a350505050565b6001600160a01b03831661055557806002600082825461054a91906107b4565b909155506105c79050565b6001600160a01b038316600090815260208190526040902054818110156105a85760405163391434e360e21b81526001600160a01b038516600482015260248101829052604481018390526064016102fc565b6001600160a01b03841660009081526020819052604090209082900390555b6001600160a01b0382166105e357600280548290039055610602565b6001600160a01b03821660009081526020819052604090208054820190555b816001600160a01b0316836001600160a01b03167fddf252ad1be2c89b69c2b068fc378daa952ba7f163c4a11628f55a4df523b3ef8360405161064791815260200190565b60405180910390a3505050565b602081526000825180602084015260005b818110156106825760208186018101516040868401015201610665565b506000604082850101526040601f19601f83011684010191505092915050565b80356001600160a01b03811681146106b957600080fd5b919050565b600080604083850312156106d157600080fd5b6106da836106a2565b946020939093013593505050565b6000806000606084860312156106fd57600080fd5b610706846106a2565b9250610714602085016106a2565b929592945050506040919091013590565b60006020828403121561073757600080fd5b610740826106a2565b9392505050565b6000806040838503121561075a57600080fd5b610763836106a2565b9150610771602084016106a2565b90509250929050565b600181811c9082168061078e57607f821691505b6020821081036107ae57634e487b7160e01b600052602260045260246000fd5b50919050565b8082018082111561028657634e487b7160e01b600052601160045260246000fdfea26469706673582212200675f60fada82e6e7d0f9411f4a59141009c270e07d6425ae0f7d83be816a4da64736f6c634300081a0033",
  "linkReferences": {},
  "deployedLinkReferences": {}
}